:100000000C942A000C943F000C943F000C943F0089
:100010000C943F000C943F000C943F000C943F0064
:100020000C943F000C943F000C943F000C943F0054
:100030000C943F000C943F000C943F000C943F0044
:100040000C943F000C943F000C943F000C943F0034
:100050000C943F0011241FBECFE5D4E0DEBFCDBF1E
:1000600010E0A0E6B0E0E0E7F1E002C005900D92FC
:10007000AC37B107D9F70E9441000C94B6000C943C
:100080000000CF93DF93CDB7DEB7E8970FB6F894B3
:10009000DEBF0FBECDBF86E0E6E7F0E0DE01D3961F
:1000A00001900D928A95E1F78FEF87BB0E94930034
:1000B00080E690E00E94A300E12CF12C8E010F5FFE
:1000C0001F4F68015601A01AB10A0E949F00982E86
:1000D0000E949B00F60191926F01FDE09F12F2CF0A
:1000E000DE01D396F801CF01801B910B8A159B0589
:1000F00044F491918D919817B1F3EE24E394F12C8F
:10010000F2CFE114F10439F488E60E949B0089E6FD
:100110000E949B00D6CF8FE690E00E94A300EE24C1
:10012000E394F12CCECF10BC8CE089B988E18AB978
:100130008EE880BD08955D9BFECF8CB908955F9BCE
:10014000FECF8CB108951F93CF93DF93EC0110E0A5
:10015000FE01E10FF11D8081882321F00E949B00A8
:100160001F5FF6CFDF91CF911F910895F894FFCFD5
:1001700048656C6C6F20576F726C64210D0A0053D8
:0C0180005446470D0A0068656C6C6F0067
:00000001FF
