:1000000033C0000044C0000042C0000040C00000F7
:100010003EC000003CC000003AC0000038C00000F4
:1000200036C0000034C0000032C0000030C0000004
:100030002EC000002CC000002AC0000028C0000014
:1000400026C0000024C0000022C0000020C0000024
:100050001EC000001CC000001AC0000018C0000034
:1000600016C0000014C0000011241FBECFEFD4E062
:10007000DEBFCDBF12E0A0E0B1E0E2EFF1E002C0F0
:1000800005900D92AA34B107D9F74AD0B0C0B8CFC5
:10009000CF93DF93CDB7DEB7C456D1090FB6F8942E
:1000A000DEBF0FBECDBF8BEF91E084D08BE0E4E6E6
:1000B000F1E0DE01119601900D928A95E1F7FE01C3
:1000C0003C9689E5DF011D928A95E9F767E072E0C9
:1000D000CE01019681D063E172E0CE0101967CD021
:1000E00067E172E0CE01019677D065E172E0CE0162
:1000F000019672D0CE0101965DD0BFEF23ED80E373
:10010000B15020408040E1F700C00000CC59DF4FE3
:100110000FB6F894DEBF0FBECDBFDF91CF9108952B
:10012000CF93DF932FD082E292E044D02FEF89E685
:1001300098E1215080409040E1F700C000002FEF8F
:1001400089E698E1215080409040E1F700C000002E
:10015000C5E0D0E09DDF892B21F421972097D1F7CE
:10016000FFCF2FEF81E19AE7215080409040E1F7E7
:1001700000C000008EE392E01DD080E090E0DF91AF
:10018000CF9108951092C5008CE08093C400E0ECFC
:10019000F0E080818D7F808388E18093C10086E0DC
:1001A0008093C20008959091C00095FFFCCF80938A
:1001B000C60008951F93CF93DF93EC0110E0FE017A
:1001C000E10FF11D8081882319F0EDDF1F5FF7CF6C
:1001D000DF91CF911F910895FB01DC010D9000206C
:1001E000E9F7119701900D920020E1F70895F89436
:0201F000FFCF3F
:1001F20041542B43495053544152543D225443508D
:10020200222C22000000000000000000000000007C
:1002120000000000000000000000000000000000DC
:1002220000000000000000000000000000000000CC
:1002320000000000000000000000000000000000BC
:1002420000000000000000000000000000000000AC
:100252000000000041542B43574A41503D22000008
:10026200000000000000000000000000000000008C
:10027200000000000000000000000000000000007C
:10028200000000000000000000000000000000006C
:10029200000000000000000000000000000000005C
:1002A200000000000000000000000000000000004C
:1002B20000000000000000003232302E3138312EB2
:1002C2003131312E383500222C3830004745542048
:1002D2002F20485454502F312E300D0A0D0A004160
:1002E200542B43495053454E443D0041542B4357F0
:1002F2004D4F44453D310062696A755F616E645FCE
:100302006D6500222C220062696A756179646361FD
:1003120063002D2D2D2D2D20455350383236362099
:1003220044656D6F202D2D2D2D2D2D0D0A0041546C
:0A0332002B4349504D55583D300053
:00000001FF
